{
  "contractName": "Faucet",
  "abi": [
    {
      "inputs": [],
      "stateMutability": "payable",
      "type": "constructor"
    },
    {
      "stateMutability": "payable",
      "type": "receive"
    },
    {
      "inputs": [
        {
          "internalType": "address payable",
          "name": "user",
          "type": "address"
        }
      ],
      "name": "requestTokens",
      "outputs": [],
      "stateMutability": "nonpayable",
      "type": "function"
    }
  ],
  "bytecode": "0x608060405261041e806100136000396000f3fe6080604052600436106100225760003560e01c8063580f39041461002e57610029565b3661002957005b600080fd5b34801561003a57600080fd5b506100556004803603810190610050919061023f565b610057565b005b678ac7230489e800008173ffffffffffffffffffffffffffffffffffffffff163111156100b9576040517f08c379a00000000000000000000000000000000000000000000000000000000081526004016100b0906102c9565b60405180910390fd5b426107086000808473ffffffffffffffffffffffffffffffffffffffff1673ffffffffffffffffffffffffffffffffffffffff168152602001908152602001600020546101069190610322565b1115610147576040517f08c379a000000000000000000000000000000000000000000000000000000000815260040161013e906103c8565b60405180910390fd5b426000808373ffffffffffffffffffffffffffffffffffffffff1673ffffffffffffffffffffffffffffffffffffffff168152602001908152602001600020819055508073ffffffffffffffffffffffffffffffffffffffff166108fc6702c68af0bb1400009081150290604051600060405180830381858888f193505050501580156101d8573d6000803e3d6000fd5b5050565b600080fd5b600073ffffffffffffffffffffffffffffffffffffffff82169050919050565b600061020c826101e1565b9050919050565b61021c81610201565b811461022757600080fd5b50565b60008135905061023981610213565b92915050565b600060208284031215610255576102546101dc565b5b60006102638482850161022a565b91505092915050565b600082825260208201905092915050565b7f4661756365742062616c616e636520697320746f6f20686967682e0000000000600082015250565b60006102b3601b8361026c565b91506102be8261027d565b602082019050919050565b600060208201905081810360008301526102e2816102a6565b9050919050565b6000819050919050565b7f4e487b7100000000000000000000000000000000000000000000000000000000600052601160045260246000fd5b600061032d826102e9565b9150610338836102e9565b92508282019050808211156103505761034f6102f3565b5b92915050565b7f506c656173652077616974206265666f72652072657175657374696e6720746f60008201527f6b656e7320616761696e2e000000000000000000000000000000000000000000602082015250565b60006103b2602b8361026c565b91506103bd82610356565b604082019050919050565b600060208201905081810360008301526103e1816103a5565b905091905056fea2646970667358221220e64696faf049540b55f0a7cc3f40686bd132cc9ae320daa3d273f7b232ec4d1164736f6c63430008120033",
  "immutableReferences": {},
  "source": "// SPDX-License-Identifier: MIT\r\npragma solidity ^0.8.17;\r\n\r\ncontract Faucet {\r\n    uint constant WAIT_TIME = 30 minutes;\r\n    uint constant MAX_BALANCE = 10 ether;\r\n    \r\n    mapping(address => uint) lastAccessTime;\r\n    \r\n\r\n    constructor() payable {\r\n        \r\n    }\r\n    \r\n    function requestTokens(address payable user) external {\r\n        require(user.balance <= MAX_BALANCE, \"Faucet balance is too high.\");\r\n        require(lastAccessTime[user] + WAIT_TIME <= block.timestamp, \"Please wait before requesting tokens again.\");\r\n        \r\n        lastAccessTime[user] = block.timestamp;\r\n\r\n        payable(user).transfer(0.2 ether);\r\n    }\r\n    \r\n    receive() external payable {\r\n        // this contract only allows receiving funds from external accounts\r\n    }\r\n}",
  "sourcePath": "D:\\Microsoft VS Code\\code\\\\Frontend\\truffle\\contracts\\faucet.sol",
  "compiler": {
    "name": "solc",
    "version": "0.8.18+commit.87f61d96.Emscripten.clang"
  },
  "schemaVersion": "3.4.11",
  "updatedAt": "2023-04-12T13:37:09.638Z",
  "devdoc": {
    "kind": "dev",
    "methods": {},
    "version": 1
  },
  "userdoc": {
    "kind": "user",
    "methods": {},
    "version": 1
  }
}