{
  "contractName": "MyToken",
  "abi": [
    {
      "inputs": [],
      "stateMutability": "payable",
      "type": "constructor"
    },
    {
      "anonymous": false,
      "inputs": [
        {
          "indexed": true,
          "internalType": "address",
          "name": "owner",
          "type": "address"
        },
        {
          "indexed": true,
          "internalType": "address",
          "name": "spender",
          "type": "address"
        },
        {
          "indexed": false,
          "internalType": "uint256",
          "name": "value",
          "type": "uint256"
        }
      ],
      "name": "Approval",
      "type": "event"
    },
    {
      "anonymous": false,
      "inputs": [
        {
          "indexed": true,
          "internalType": "address",
          "name": "from",
          "type": "address"
        },
        {
          "indexed": true,
          "internalType": "address",
          "name": "to",
          "type": "address"
        },
        {
          "indexed": false,
          "internalType": "uint256",
          "name": "value",
          "type": "uint256"
        }
      ],
      "name": "Transfer",
      "type": "event"
    },
    {
      "inputs": [],
      "name": "EXCHANGE_RATE",
      "outputs": [
        {
          "internalType": "uint256",
          "name": "",
          "type": "uint256"
        }
      ],
      "stateMutability": "view",
      "type": "function"
    },
    {
      "inputs": [
        {
          "internalType": "address",
          "name": "owner",
          "type": "address"
        },
        {
          "internalType": "address",
          "name": "spender",
          "type": "address"
        }
      ],
      "name": "allowance",
      "outputs": [
        {
          "internalType": "uint256",
          "name": "",
          "type": "uint256"
        }
      ],
      "stateMutability": "view",
      "type": "function"
    },
    {
      "inputs": [
        {
          "internalType": "address",
          "name": "spender",
          "type": "address"
        },
        {
          "internalType": "uint256",
          "name": "amount",
          "type": "uint256"
        }
      ],
      "name": "approve",
      "outputs": [
        {
          "internalType": "bool",
          "name": "",
          "type": "bool"
        }
      ],
      "stateMutability": "nonpayable",
      "type": "function"
    },
    {
      "inputs": [
        {
          "internalType": "address",
          "name": "account",
          "type": "address"
        }
      ],
      "name": "balanceOf",
      "outputs": [
        {
          "internalType": "uint256",
          "name": "",
          "type": "uint256"
        }
      ],
      "stateMutability": "view",
      "type": "function"
    },
    {
      "inputs": [
        {
          "internalType": "address",
          "name": "spender",
          "type": "address"
        },
        {
          "internalType": "uint256",
          "name": "subtractedValue",
          "type": "uint256"
        }
      ],
      "name": "decreaseAllowance",
      "outputs": [
        {
          "internalType": "bool",
          "name": "",
          "type": "bool"
        }
      ],
      "stateMutability": "nonpayable",
      "type": "function"
    },
    {
      "inputs": [
        {
          "internalType": "address",
          "name": "spender",
          "type": "address"
        },
        {
          "internalType": "uint256",
          "name": "addedValue",
          "type": "uint256"
        }
      ],
      "name": "increaseAllowance",
      "outputs": [
        {
          "internalType": "bool",
          "name": "",
          "type": "bool"
        }
      ],
      "stateMutability": "nonpayable",
      "type": "function"
    },
    {
      "inputs": [],
      "name": "name",
      "outputs": [
        {
          "internalType": "string",
          "name": "",
          "type": "string"
        }
      ],
      "stateMutability": "view",
      "type": "function"
    },
    {
      "inputs": [],
      "name": "symbol",
      "outputs": [
        {
          "internalType": "string",
          "name": "",
          "type": "string"
        }
      ],
      "stateMutability": "view",
      "type": "function"
    },
    {
      "inputs": [],
      "name": "totalSupply",
      "outputs": [
        {
          "internalType": "uint256",
          "name": "",
          "type": "uint256"
        }
      ],
      "stateMutability": "view",
      "type": "function"
    },
    {
      "inputs": [
        {
          "internalType": "address",
          "name": "to",
          "type": "address"
        },
        {
          "internalType": "uint256",
          "name": "amount",
          "type": "uint256"
        }
      ],
      "name": "transfer",
      "outputs": [
        {
          "internalType": "bool",
          "name": "",
          "type": "bool"
        }
      ],
      "stateMutability": "nonpayable",
      "type": "function"
    },
    {
      "inputs": [
        {
          "internalType": "address",
          "name": "from",
          "type": "address"
        },
        {
          "internalType": "address",
          "name": "to",
          "type": "address"
        },
        {
          "internalType": "uint256",
          "name": "amount",
          "type": "uint256"
        }
      ],
      "name": "transferFrom",
      "outputs": [
        {
          "internalType": "bool",
          "name": "",
          "type": "bool"
        }
      ],
      "stateMutability": "nonpayable",
      "type": "function"
    },
    {
      "stateMutability": "payable",
      "type": "receive"
    },
    {
      "inputs": [],
      "name": "decimals",
      "outputs": [
        {
          "internalType": "uint8",
          "name": "",
          "type": "uint8"
        }
      ],
      "stateMutability": "view",
      "type": "function"
    },
    {
      "inputs": [],
      "name": "buyToken",
      "outputs": [],
      "stateMutability": "payable",
      "type": "function"
    },
    {
      "inputs": [
        {
          "internalType": "uint256",
          "name": "_tokenAmount",
          "type": "uint256"
        }
      ],
      "name": "sellToken",
      "outputs": [],
      "stateMutability": "nonpayable",
      "type": "function"
    }
  ],
  "bytecode": "0x60806040526040518060400160405280601381526020017f4170707265636961746520636974697a656e73000000000000000000000000008152506040518060400160405280600281526020017f41430000000000000000000000000000000000000000000000000000000000008152508160039081620000819190620004d1565b508060049081620000939190620004d1565b505050620000d530620000ab620000db60201b60201c565b600a620000b9919062000748565b62989680620000c9919062000799565b620000e060201b60201c565b620008d0565b600090565b600073ffffffffffffffffffffffffffffffffffffffff168273ffffffffffffffffffffffffffffffffffffffff160362000152576040517f08c379a0000000000000000000000000000000000000000000000000000000008152600401620001499062000845565b60405180910390fd5b62000166600083836200024d60201b60201c565b80600260008282546200017a919062000867565b92505081905550806000808473ffffffffffffffffffffffffffffffffffffffff1673ffffffffffffffffffffffffffffffffffffffff168152602001908152602001600020600082825401925050819055508173ffffffffffffffffffffffffffffffffffffffff16600073ffffffffffffffffffffffffffffffffffffffff167fddf252ad1be2c89b69c2b068fc378daa952ba7f163c4a11628f55a4df523b3ef836040516200022d9190620008b3565b60405180910390a362000249600083836200025260201b60201c565b5050565b505050565b505050565b600081519050919050565b7f4e487b7100000000000000000000000000000000000000000000000000000000600052604160045260246000fd5b7f4e487b7100000000000000000000000000000000000000000000000000000000600052602260045260246000fd5b60006002820490506001821680620002d957607f821691505b602082108103620002ef57620002ee62000291565b5b50919050565b60008190508160005260206000209050919050565b60006020601f8301049050919050565b600082821b905092915050565b600060088302620003597fffffffffffffffffffffffffffffffffffffffffffffffffffffffffffffffff826200031a565b6200036586836200031a565b95508019841693508086168417925050509392505050565b6000819050919050565b6000819050919050565b6000620003b2620003ac620003a6846200037d565b62000387565b6200037d565b9050919050565b6000819050919050565b620003ce8362000391565b620003e6620003dd82620003b9565b84845462000327565b825550505050565b600090565b620003fd620003ee565b6200040a818484620003c3565b505050565b5b81811015620004325762000426600082620003f3565b60018101905062000410565b5050565b601f82111562000481576200044b81620002f5565b62000456846200030a565b8101602085101562000466578190505b6200047e62000475856200030a565b8301826200040f565b50505b505050565b600082821c905092915050565b6000620004a66000198460080262000486565b1980831691505092915050565b6000620004c1838362000493565b9150826002028217905092915050565b620004dc8262000257565b67ffffffffffffffff811115620004f857620004f762000262565b5b620005048254620002c0565b6200051182828562000436565b600060209050601f83116001811462000549576000841562000534578287015190505b620005408582620004b3565b865550620005b0565b601f1984166200055986620002f5565b60005b8281101562000583578489015182556001820191506020850194506020810190506200055c565b86831015620005a357848901516200059f601f89168262000493565b8355505b6001600288020188555050505b505050505050565b7f4e487b7100000000000000000000000000000000000000000000000000000000600052601160045260246000fd5b60008160011c9050919050565b6000808291508390505b600185111562000646578086048111156200061e576200061d620005b8565b5b60018516156200062e5780820291505b80810290506200063e85620005e7565b9450620005fe565b94509492505050565b60008262000661576001905062000734565b8162000671576000905062000734565b81600181146200068a57600281146200069557620006cb565b600191505062000734565b60ff841115620006aa57620006a9620005b8565b5b8360020a915084821115620006c457620006c3620005b8565b5b5062000734565b5060208310610133831016604e8410600b8410161715620007055782820a905083811115620006ff57620006fe620005b8565b5b62000734565b620007148484846001620005f4565b925090508184048111156200072e576200072d620005b8565b5b81810290505b9392505050565b600060ff82169050919050565b600062000755826200037d565b915062000762836200073b565b9250620007917fffffffffffffffffffffffffffffffffffffffffffffffffffffffffffffffff84846200064f565b905092915050565b6000620007a6826200037d565b9150620007b3836200037d565b9250828202620007c3816200037d565b91508282048414831517620007dd57620007dc620005b8565b5b5092915050565b600082825260208201905092915050565b7f45524332303a206d696e7420746f20746865207a65726f206164647265737300600082015250565b60006200082d601f83620007e4565b91506200083a82620007f5565b602082019050919050565b6000602082019050818103600083015262000860816200081e565b9050919050565b600062000874826200037d565b915062000881836200037d565b92508282019050808211156200089c576200089b620005b8565b5b92915050565b620008ad816200037d565b82525050565b6000602082019050620008ca6000830184620008a2565b92915050565b61170e80620008e06000396000f3fe6080604052600436106100e15760003560e01c8063395093511161007f578063a457c2d711610059578063a457c2d7146102e1578063a48217191461031e578063a9059cbb14610328578063dd62ed3e14610365576100e8565b8063395093511461023c57806370a082311461027957806395d89b41146102b6576100e8565b806318160ddd116100bb57806318160ddd146101805780632397e4d7146101ab57806323b872dd146101d4578063313ce56714610211576100e8565b806306fdde03146100ed578063095ea7b31461011857806314a8bd0d14610155576100e8565b366100e857005b600080fd5b3480156100f957600080fd5b506101026103a2565b60405161010f9190610dd8565b60405180910390f35b34801561012457600080fd5b5061013f600480360381019061013a9190610e93565b610434565b60405161014c9190610eee565b60405180910390f35b34801561016157600080fd5b5061016a610457565b6040516101779190610f18565b60405180910390f35b34801561018c57600080fd5b5061019561045c565b6040516101a29190610f18565b60405180910390f35b3480156101b757600080fd5b506101d260048036038101906101cd9190610f33565b610466565b005b3480156101e057600080fd5b506101fb60048036038101906101f69190610f60565b61057d565b6040516102089190610eee565b60405180910390f35b34801561021d57600080fd5b506102266105ac565b6040516102339190610fcf565b60405180910390f35b34801561024857600080fd5b50610263600480360381019061025e9190610e93565b6105b1565b6040516102709190610eee565b60405180910390f35b34801561028557600080fd5b506102a0600480360381019061029b9190610fea565b6105e8565b6040516102ad9190610f18565b60405180910390f35b3480156102c257600080fd5b506102cb610630565b6040516102d89190610dd8565b60405180910390f35b3480156102ed57600080fd5b5061030860048036038101906103039190610e93565b6106c2565b6040516103159190610eee565b60405180910390f35b610326610739565b005b34801561033457600080fd5b5061034f600480360381019061034a9190610e93565b6107c1565b60405161035c9190610eee565b60405180910390f35b34801561037157600080fd5b5061038c60048036038101906103879190611017565b6107e4565b6040516103999190610f18565b60405180910390f35b6060600380546103b190611086565b80601f01602080910402602001604051908101604052809291908181526020018280546103dd90611086565b801561042a5780601f106103ff5761010080835404028352916020019161042a565b820191906000526020600020905b81548152906001019060200180831161040d57829003601f168201915b5050505050905090565b60008061043f61086b565b905061044c818585610873565b600191505092915050565b600a81565b6000600254905090565b600081116104a9576040517f08c379a00000000000000000000000000000000000000000000000000000000081526004016104a090611103565b60405180910390fd5b6000670de0b6b3a7640000600a836104c19190611181565b6104cb91906111b2565b9050803073ffffffffffffffffffffffffffffffffffffffff16311015610527576040517f08c379a000000000000000000000000000000000000000000000000000000000815260040161051e90611240565b60405180910390fd5b610532333084610a3c565b3373ffffffffffffffffffffffffffffffffffffffff166108fc829081150290604051600060405180830381858888f19350505050158015610578573d6000803e3d6000fd5b505050565b60008061058861086b565b9050610595858285610cb2565b6105a0858585610a3c565b60019150509392505050565b600090565b6000806105bc61086b565b90506105dd8185856105ce85896107e4565b6105d89190611260565b610873565b600191505092915050565b60008060008373ffffffffffffffffffffffffffffffffffffffff1673ffffffffffffffffffffffffffffffffffffffff168152602001908152602001600020549050919050565b60606004805461063f90611086565b80601f016020809104026020016040519081016040528092919081815260200182805461066b90611086565b80156106b85780601f1061068d576101008083540402835291602001916106b8565b820191906000526020600020905b81548152906001019060200180831161069b57829003601f168201915b5050505050905090565b6000806106cd61086b565b905060006106db82866107e4565b905083811015610720576040517f08c379a000000000000000000000000000000000000000000000000000000000815260040161071790611306565b60405180910390fd5b61072d8286868403610873565b60019250505092915050565b6000670de0b6b3a76400003461074f9190611181565b1161078f576040517f08c379a000000000000000000000000000000000000000000000000000000000815260040161078690611372565b60405180910390fd5b6000600a670de0b6b3a7640000346107a79190611181565b6107b191906111b2565b90506107be303383610a3c565b50565b6000806107cc61086b565b90506107d9818585610a3c565b600191505092915050565b6000600160008473ffffffffffffffffffffffffffffffffffffffff1673ffffffffffffffffffffffffffffffffffffffff16815260200190815260200160002060008373ffffffffffffffffffffffffffffffffffffffff1673ffffffffffffffffffffffffffffffffffffffff16815260200190815260200160002054905092915050565b600033905090565b600073ffffffffffffffffffffffffffffffffffffffff168373ffffffffffffffffffffffffffffffffffffffff16036108e2576040517f08c379a00000000000000000000000000000000000000000000000000000000081526004016108d990611404565b60405180910390fd5b600073ffffffffffffffffffffffffffffffffffffffff168273ffffffffffffffffffffffffffffffffffffffff1603610951576040517f08c379a000000000000000000000000000000000000000000000000000000000815260040161094890611496565b60405180910390fd5b80600160008573ffffffffffffffffffffffffffffffffffffffff1673ffffffffffffffffffffffffffffffffffffffff16815260200190815260200160002060008473ffffffffffffffffffffffffffffffffffffffff1673ffffffffffffffffffffffffffffffffffffffff168152602001908152602001600020819055508173ffffffffffffffffffffffffffffffffffffffff168373ffffffffffffffffffffffffffffffffffffffff167f8c5be1e5ebec7d5bd14f71427d1e84f3dd0314c0f7b2291e5b200ac8c7c3b92583604051610a2f9190610f18565b60405180910390a3505050565b600073ffffffffffffffffffffffffffffffffffffffff168373ffffffffffffffffffffffffffffffffffffffff1603610aab576040517f08c379a0000000000000000000000000000000000000000000000000000000008152600401610aa290611528565b60405180910390fd5b600073ffffffffffffffffffffffffffffffffffffffff168273ffffffffffffffffffffffffffffffffffffffff1603610b1a576040517f08c379a0000000000000000000000000000000000000000000000000000000008152600401610b11906115ba565b60405180910390fd5b610b25838383610d3e565b60008060008573ffffffffffffffffffffffffffffffffffffffff1673ffffffffffffffffffffffffffffffffffffffff16815260200190815260200160002054905081811015610bab576040517f08c379a0000000000000000000000000000000000000000000000000000000008152600401610ba29061164c565b60405180910390fd5b8181036000808673ffffffffffffffffffffffffffffffffffffffff1673ffffffffffffffffffffffffffffffffffffffff16815260200190815260200160002081905550816000808573ffffffffffffffffffffffffffffffffffffffff1673ffffffffffffffffffffffffffffffffffffffff168152602001908152602001600020600082825401925050819055508273ffffffffffffffffffffffffffffffffffffffff168473ffffffffffffffffffffffffffffffffffffffff167fddf252ad1be2c89b69c2b068fc378daa952ba7f163c4a11628f55a4df523b3ef84604051610c999190610f18565b60405180910390a3610cac848484610d43565b50505050565b6000610cbe84846107e4565b90507fffffffffffffffffffffffffffffffffffffffffffffffffffffffffffffffff8114610d385781811015610d2a576040517f08c379a0000000000000000000000000000000000000000000000000000000008152600401610d21906116b8565b60405180910390fd5b610d378484848403610873565b5b50505050565b505050565b505050565b600081519050919050565b600082825260208201905092915050565b60005b83811015610d82578082015181840152602081019050610d67565b60008484015250505050565b6000601f19601f8301169050919050565b6000610daa82610d48565b610db48185610d53565b9350610dc4818560208601610d64565b610dcd81610d8e565b840191505092915050565b60006020820190508181036000830152610df28184610d9f565b905092915050565b600080fd5b600073ffffffffffffffffffffffffffffffffffffffff82169050919050565b6000610e2a82610dff565b9050919050565b610e3a81610e1f565b8114610e4557600080fd5b50565b600081359050610e5781610e31565b92915050565b6000819050919050565b610e7081610e5d565b8114610e7b57600080fd5b50565b600081359050610e8d81610e67565b92915050565b60008060408385031215610eaa57610ea9610dfa565b5b6000610eb885828601610e48565b9250506020610ec985828601610e7e565b9150509250929050565b60008115159050919050565b610ee881610ed3565b82525050565b6000602082019050610f036000830184610edf565b92915050565b610f1281610e5d565b82525050565b6000602082019050610f2d6000830184610f09565b92915050565b600060208284031215610f4957610f48610dfa565b5b6000610f5784828501610e7e565b91505092915050565b600080600060608486031215610f7957610f78610dfa565b5b6000610f8786828701610e48565b9350506020610f9886828701610e48565b9250506040610fa986828701610e7e565b9150509250925092565b600060ff82169050919050565b610fc981610fb3565b82525050565b6000602082019050610fe46000830184610fc0565b92915050565b60006020828403121561100057610fff610dfa565b5b600061100e84828501610e48565b91505092915050565b6000806040838503121561102e5761102d610dfa565b5b600061103c85828601610e48565b925050602061104d85828601610e48565b9150509250929050565b7f4e487b7100000000000000000000000000000000000000000000000000000000600052602260045260246000fd5b6000600282049050600182168061109e57607f821691505b6020821081036110b1576110b0611057565b5b50919050565b7f496e76616c696420616d6f756e74206f6620746f6b656e000000000000000000600082015250565b60006110ed601783610d53565b91506110f8826110b7565b602082019050919050565b6000602082019050818103600083015261111c816110e0565b9050919050565b7f4e487b7100000000000000000000000000000000000000000000000000000000600052601260045260246000fd5b7f4e487b7100000000000000000000000000000000000000000000000000000000600052601160045260246000fd5b600061118c82610e5d565b915061119783610e5d565b9250826111a7576111a6611123565b5b828204905092915050565b60006111bd82610e5d565b91506111c883610e5d565b92508282026111d681610e5d565b915082820484148315176111ed576111ec611152565b5b5092915050565b7f496e73756666696369656e742062616c616e6365000000000000000000000000600082015250565b600061122a601483610d53565b9150611235826111f4565b602082019050919050565b600060208201905081810360008301526112598161121d565b9050919050565b600061126b82610e5d565b915061127683610e5d565b925082820190508082111561128e5761128d611152565b5b92915050565b7f45524332303a2064656372656173656420616c6c6f77616e63652062656c6f7760008201527f207a65726f000000000000000000000000000000000000000000000000000000602082015250565b60006112f0602583610d53565b91506112fb82611294565b604082019050919050565b6000602082019050818103600083015261131f816112e3565b9050919050565b7f496e76616c696420616d6f756e74206f66206574686572000000000000000000600082015250565b600061135c601783610d53565b915061136782611326565b602082019050919050565b6000602082019050818103600083015261138b8161134f565b9050919050565b7f45524332303a20617070726f76652066726f6d20746865207a65726f2061646460008201527f7265737300000000000000000000000000000000000000000000000000000000602082015250565b60006113ee602483610d53565b91506113f982611392565b604082019050919050565b6000602082019050818103600083015261141d816113e1565b9050919050565b7f45524332303a20617070726f766520746f20746865207a65726f20616464726560008201527f7373000000000000000000000000000000000000000000000000000000000000602082015250565b6000611480602283610d53565b915061148b82611424565b604082019050919050565b600060208201905081810360008301526114af81611473565b9050919050565b7f45524332303a207472616e736665722066726f6d20746865207a65726f20616460008201527f6472657373000000000000000000000000000000000000000000000000000000602082015250565b6000611512602583610d53565b915061151d826114b6565b604082019050919050565b6000602082019050818103600083015261154181611505565b9050919050565b7f45524332303a207472616e7366657220746f20746865207a65726f206164647260008201527f6573730000000000000000000000000000000000000000000000000000000000602082015250565b60006115a4602383610d53565b91506115af82611548565b604082019050919050565b600060208201905081810360008301526115d381611597565b9050919050565b7f45524332303a207472616e7366657220616d6f756e742065786365656473206260008201527f616c616e63650000000000000000000000000000000000000000000000000000602082015250565b6000611636602683610d53565b9150611641826115da565b604082019050919050565b6000602082019050818103600083015261166581611629565b9050919050565b7f45524332303a20696e73756666696369656e7420616c6c6f77616e6365000000600082015250565b60006116a2601d83610d53565b91506116ad8261166c565b602082019050919050565b600060208201905081810360008301526116d181611695565b905091905056fea264697066735822122032970a08e11e8886727f3f117b2b83f36f3d963075299da28e9c5706fb9fac6564736f6c63430008110033",
  "immutableReferences": {},
  "source": "// SPDX-License-Identifier: MIT\r\npragma solidity ^0.8.17;\r\n\r\nimport \"@openzeppelin/contracts/token/ERC20/ERC20.sol\";\r\n\r\ncontract MyToken is ERC20 {\r\n    uint256 public constant EXCHANGE_RATE = 10;\r\n\r\n    constructor() payable ERC20(\"Appreciate citizens\", \"AC\") {\r\n        _mint(address(this), 10000000 * (10 ** decimals()));\r\n    }\r\n\r\n    function decimals() public view virtual override returns (uint8) {\r\n        return 0;\r\n    }\r\n\r\n    receive() external payable {}\r\n    \r\n    function buyToken() external payable {\r\n        require(msg.value/ 10**18 > 0, \"Invalid amount of ether\");\r\n        uint256 tokenAmount = msg.value/ 10**18 * EXCHANGE_RATE;\r\n        _transfer(address(this), msg.sender, tokenAmount);\r\n    }\r\n\r\n    function sellToken(uint256 _tokenAmount) external {\r\n        require(_tokenAmount > 0, \"Invalid amount of token\");\r\n        uint256 etherAmount = _tokenAmount / EXCHANGE_RATE * 1 ether;\r\n        require(payable(address(this)).balance >= etherAmount, \"Insufficient balance\");\r\n        _transfer(msg.sender, payable(address(this)), _tokenAmount);\r\n        payable(msg.sender).transfer(etherAmount);\r\n    }\r\n}\r\n",
  "sourcePath": "D:\\Microsoft VS Code\\code\\\\Frontend\\truffle\\contracts\\MyToken.sol",
  "compiler": {
    "name": "solc",
    "version": "0.8.17+commit.8df45f5f.Emscripten.clang"
  },
  "schemaVersion": "3.4.11",
  "updatedAt": "2023-05-15T17:07:21.196Z",
  "devdoc": {
    "kind": "dev",
    "methods": {
      "allowance(address,address)": {
        "details": "See {IERC20-allowance}."
      },
      "approve(address,uint256)": {
        "details": "See {IERC20-approve}. NOTE: If `amount` is the maximum `uint256`, the allowance is not updated on `transferFrom`. This is semantically equivalent to an infinite approval. Requirements: - `spender` cannot be the zero address."
      },
      "balanceOf(address)": {
        "details": "See {IERC20-balanceOf}."
      },
      "decimals()": {
        "details": "Returns the number of decimals used to get its user representation. For example, if `decimals` equals `2`, a balance of `505` tokens should be displayed to a user as `5.05` (`505 / 10 ** 2`). Tokens usually opt for a value of 18, imitating the relationship between Ether and Wei. This is the value {ERC20} uses, unless this function is overridden; NOTE: This information is only used for _display_ purposes: it in no way affects any of the arithmetic of the contract, including {IERC20-balanceOf} and {IERC20-transfer}."
      },
      "decreaseAllowance(address,uint256)": {
        "details": "Atomically decreases the allowance granted to `spender` by the caller. This is an alternative to {approve} that can be used as a mitigation for problems described in {IERC20-approve}. Emits an {Approval} event indicating the updated allowance. Requirements: - `spender` cannot be the zero address. - `spender` must have allowance for the caller of at least `subtractedValue`."
      },
      "increaseAllowance(address,uint256)": {
        "details": "Atomically increases the allowance granted to `spender` by the caller. This is an alternative to {approve} that can be used as a mitigation for problems described in {IERC20-approve}. Emits an {Approval} event indicating the updated allowance. Requirements: - `spender` cannot be the zero address."
      },
      "name()": {
        "details": "Returns the name of the token."
      },
      "symbol()": {
        "details": "Returns the symbol of the token, usually a shorter version of the name."
      },
      "totalSupply()": {
        "details": "See {IERC20-totalSupply}."
      },
      "transfer(address,uint256)": {
        "details": "See {IERC20-transfer}. Requirements: - `to` cannot be the zero address. - the caller must have a balance of at least `amount`."
      },
      "transferFrom(address,address,uint256)": {
        "details": "See {IERC20-transferFrom}. Emits an {Approval} event indicating the updated allowance. This is not required by the EIP. See the note at the beginning of {ERC20}. NOTE: Does not update the allowance if the current allowance is the maximum `uint256`. Requirements: - `from` and `to` cannot be the zero address. - `from` must have a balance of at least `amount`. - the caller must have allowance for ``from``'s tokens of at least `amount`."
      }
    },
    "version": 1
  },
  "userdoc": {
    "kind": "user",
    "methods": {},
    "version": 1
  }
}